:04000000FEEF7FF0A0
:101000000000C00EC26EC36A830EC46E3A01406B0C
:10101000506B606BCB6ACC6A170EE76F130E166FBE
:10102000A00E3D01F26F800EF36FF46BF66B8A0E2B
:10103000F56FCFEC08F0D4EC09F0216A20EE22F035
:1010400010EE0AF0110E6F006FFFE3FFE806FBE2FF
:10105000CCB02DEF08F02FEF08F04EEF08F0206A2B
:10106000000E1F6E1F500A0FD96EDA6ADF503D0165
:10107000EA6F680E096EE40EE82EFED7092EFCD743
:1010800000D01F4A202A205009E1120E1F5CD8A070
:101090004CEF08F04EEF08F032EF08F03D01F28916
:1010A000F7B355EF08F057EF08F01EEF08F0D4EC57
:1010B00009F0010E046E010E0DEC09F06F00A0F7AF
:1010C0001CF01E6A000E1D6E1CC01DF01E6A1D0E57
:1010D000056E8AEC09F06C0E3D01E819D8A473EF97
:1010E00008F075EF08F07AEF08F0010E216ECC845D
:1010F000C9EF08F02104D8A480EF08F082EF08F0CF
:10110000A1EF08F0340EE819D8A489EF08F08BEFAE
:1011100008F0A1EF08F0216ACC94680E096EE40E85
:10112000E82EFED7092EFCD700D0CB88680E096EBA
:10113000E40EE82EFED7092EFCD700D0CB9AC9EFDB
:1011400008F02104D8A4A7EF08F0A9EF08F0C8EF31
:1011500008F0350EE819D8A4B0EF08F0B2EF08F0A7
:10116000C8EF08F0216ACC94680E096EE40EE82EF0
:10117000FED7092EFCD700D0CB8A680E096EE40E8C
:10118000E82EFED7092EFCD700D0CB98C9EF08F087
:10119000216A3D01F7831EEF08F0FEEF7FF0000E9D
:1011A00040EC09F0020E056EA00E046E920EE82EC1
:1011B000FED7042EFCD7052EFAD700D0030EBBECC9
:1011C00009F0680E046EE40EE82EFED7042EFCD75C
:1011D00000D0030EBBEC09F0E50E046E910EE82E74
:1011E000FED7042EFCD70000030EBBEC09F0020E64
:1011F000BBEC09F0020EBBEC09F0080EBBEC09F0E9
:10120000000EBBEC09F00C0EBBEC09F0000EBBECC1
:1012100009F0060EBBEC09F01200056E0504D8A417
:1012200014EF09F016EF09F027EF09F004507F0FD3
:10123000086E08380F0B066E08500F0B076E06502D
:10124000BBEC09F00750BBEC09F03FEF09F0020ED0
:101250000518D8A42EEF09F030EF09F03FEF09F0A0
:101260000450BF0F086E08380F0B066E08500F0BA6
:10127000076E0650BBEC09F00750BBEC09F01200FA
:10128000016E01A046EF09F048EF09F04BEF09F0BD
:10129000CA844CEF09F0CA9401A251EF09F053EF50
:1012A00009F056EF09F0CA8657EF09F0CA9601A473
:1012B0005CEF09F05EEF09F061EF09F0CA8862EFB8
:1012C00009F0CA9801A667EF09F069EF09F06CEF21
:1012D00009F0CA8A6DEF09F0CA9A1200046E045030
:1012E0000F0B026E0450F00B036ECA8003380F0B15
:1012F00040EC09F0CA82D50EE82EFED70000CA9253
:10130000025040EC09F0CA82D50EE82EFED700004C
:10131000CA921200076A000E066E98EF09F0055097
:101320000624D96EDA6ADF506EEC09F0064A072A05
:1013300005500624D96EDA6ADF50D8A4A2EF09F06E
:10134000A4EF09F08FEF09F01200960EF66E130E5F
:10135000F76E000EF86E00EE22F010EE12F00900AB
:101360006F00D7FFEEFFE550E150F9E1356A346ACE
:10137000000101EF08F0036ECA90035040EC09F041
:10138000CA82540E026E1C0EE82EFED7022EFCD727
:1013900000D0CA921200417070756920626F757436
:1013A0006F6E205243300D0A000EBBEC09F0010EA7
:0613B000BBEC09F0120085
:04FFFC00A5EF09F074
:020000040030CA
:0A0000008CFDE7F79FFFFFDFFFFF15
:00000001FF
