:04000000FEEF7FF0A0
:10100000004944203D20256400004C6A4D6AC00E12
:10101000C26EC36A830EC46E3A01406B506B606B44
:10102000060E526FCB6ACC6A170EE76F130E166F5F
:10103000090EE56F0A0EE66F230E096F240E0A6F84
:10104000A00E3D01F26F800EF36FF46B060EF66F8B
:10105000820EF56F840E5D6F030E656F12EC0BF060
:1010600059EC0CF0CB8A110E2B6E3C0E2A6ECB0E77
:10107000E82EFED72A2EFCD72B2EFAD700003D01F2
:101080005D9D020E566FD00E586F556B5D8B63A140
:101090004CEF08F04EEF08F047EF08F0639162ABB9
:1010A00054EF08F056EF08F04FEF08F0450E556F7B
:1010B00063A55DEF08F05FEF08F058EF08F0639567
:1010C000CB9A090E2B6E1E0E2A6EE40EE82EFED76A
:1010D0002A2EFCD72B2EFAD700D0CBA872EF08F01F
:1010E00076EF08F02A6A2A2A77EF08F02A6A2A3A65
:1010F000CB502A18EF0B2A18CB6E010E3D01566F0C
:10110000D00E586F556B5D8B63A189EF08F08BEFA4
:1011100008F084EF08F0639162AB91EF08F093EF71
:1011200008F08CEF08F063A598EF08F09AEF08F04C
:1011300093EF08F06395D10E586F010E566F5D8BDB
:1011400063A1A5EF08F0A7EF08F0A0EF08F0639106
:101150005E8F62A1AEEF08F0B0EF08F0A9EF08F0E3
:101160006F0050F54EF063A5B8EF08F0BAEF08F045
:10117000B3EF08F063954C504E18D8B4C2EF08F0A6
:10118000C4EF08F0D7EF08F0CCA4C9EF08F0CDEF1A
:1011900008F02A6A2A2ACEEF08F02A6A2A462A4646
:1011A000CC502A18FB0B2A18CC6E4EC04CF0010E06
:1011B0003D01566FEC0E586FD00E556F5D8B63A1DD
:1011C000E4EF08F0E6EF08F0DFEF08F0639162ABC0
:1011D000ECEF08F0EEEF08F0E7EF08F063A5F3EFAF
:1011E00008F0F5EF08F0EEEF08F06395ED0E586F9C
:1011F000010E566F5D8B63A100EF09F002EF09F05D
:10120000FBEF08F063915E8F62A109EF09F00BEF2D
:1012100009F004EF09F06F0050F54DF063A513EFEE
:1012200009F015EF09F00EEF09F0639559EC0CF099
:101230002C0E1A6E010E1B6E4DC01CF01D6A1FECA9
:101240000CF0010E046E010E50EC0BF02C0E056E2E
:10125000EAEC0BF061EF08F0FEEF7FF00C50D96E76
:10126000DA6A6F007FFFF6FF0800F550250AD8A460
:101270003CEF09F03EEF09F0F4EF09F00C50D96EA5
:10128000DA6ADF2A506A000E4F6E4FC053F0516881
:1012900052680C50D96EDA6ADF50106E600043F06D
:1012A000F6FF0800F550640AD8B459EF09F05BEF77
:1012B00009F068EF09F0600043F0F6FF0800F55010
:1012C000690AD8A466EF09F068EF09F0EEEF09F0BB
:1012D0000D50D96EDA6A020EDF26DF5CD96EDA6A4B
:1012E0006F0078FF11F06F0078FF12F00C50D96E8C
:1012F000DA6A1028DF6E200E156E12BE82EF09F03A
:1013000085EF09F0010E86EF09F0000E0F6E15064D
:101310001550600FD96EDA6A11C001F012C002F0E8
:10132000046A0A0E036E65EC0AF001C007F002C001
:1013300008F005EC0CF00750300FDF6E11C001F023
:1013400012C002F0046A0A0E036E05EC0AF001C036
:1013500011F002C012F011501210D8B4B2EF09F01F
:10136000B4EF09F0BCEF09F01550D8A4BAEF09F0BA
:10137000BCEF09F087EF09F01550D8B4C2EF09F0BF
:10138000C4EF09F0E3EF09F00F50D8B4CAEF09F049
:10139000CCEF09F0E3EF09F015061550600FD96E98
:1013A000DA6A2D0EDF6EE3EF09F01550600FD96E8B
:1013B000DA6ADF500E6E0E50016E026A0BC003F047
:1013C000BCEC0AF0152A200E1518D8A4EAEF09F093
:1013D000ECEF09F0D5EF09F004EF0AF00C50D96EEC
:1013E000DA6ADF2A04EF0AF00C50D96EDA6A6F006D
:1013F0007FFFF6FF0800F550016E026A0BC003F094
:10140000BCEC0AF0EEEF09F01200066A04BE0DEF24
:101410000AF00BEF0AF013EF0AF0036C041ED8B0C9
:10142000042A010E066E02BE1AEF0AF018EF0AF047
:1014300020EF0AF0016C021ED8B0022A010E061A33
:10144000086A000E076E03500410D8B42AEF0AF0A1
:101450002CEF0AF054EF0AF0010E056E34EF0AF09B
:10146000D89003360436052A04AE39EF0AF03BEF74
:101470000AF030EF0AF0D890073608360350015CC6
:1014800004500258D8A047EF0AF049EF0AF04EEF97
:101490000AF00350015E0450025A0780D8900432CB
:1014A0000332052E3BEF0AF00650D8B45AEF0AF08B
:1014B0005CEF0AF060EF0AF0076C081ED8B0082A4B
:1014C00007C001F008C002F01200066A02BE6DEF0C
:1014D0000AF06BEF0AF073EF0AF0016C021ED8B04D
:1014E000022A010E066E04BE7AEF0AF078EF0AF0C7
:1014F0007EEF0AF0036C041ED8B0042A03500410D7
:10150000D8B485EF0AF087EF0AF0ABEF0AF0010ECE
:10151000056E8FEF0AF0D89003360436052A04AE24
:1015200094EF0AF096EF0AF08BEF0AF00350015C9B
:1015300004500258D8A09FEF0AF0A1EF0AF0A5EFDF
:101540000AF00350015E0450025AD890043203326C
:10155000052E96EF0AF00650D8B4B1EF0AF0B3EFBB
:101560000AF0B7EF0AF0016C021ED8B0022A01C0DF
:1015700001F002C002F012000350D8B4C2EF0AF02A
:10158000C4EF0AF0CCEF0AF00350D8A4CAEF0AF077
:10159000CCEF0AF0D1EF0AF0015060EC0CF011EF43
:1015A0000BF00350D96EDA6A090ED926DE50DE1030
:1015B000D8B4DDEF0AF0DFEF0AF0F8EF0AF00350DD
:1015C000D96EDA6A090ED9260350E16EE26A020E7C
:1015D000E126DE50E65CE650800A086EDE50800AA6
:1015E0000858D8B0F6EF0AF0F8EF0AF011EF0BF058
:1015F0000350D96EDA6A020ED926DF50046E03500A
:10160000D96EDA6ADF500424D96EDA6A600007F016
:10161000DFFF0350D96EDA6A020ED926DE2A000EE9
:10162000DD221200000E83EC0BF0020E056EA00E00
:10163000046E920EE82EFED7042EFCD7052EFAD7A4
:1016400000D0030E49EC0CF0680E046EE40EE82E98
:10165000FED7042EFCD700D0030E49EC0CF0E50EAB
:10166000046E910EE82EFED7042EFCD70000030E68
:1016700049EC0CF0020E49EC0CF0020E49EC0CF0B7
:10168000080E49EC0CF0000E49EC0CF00C0E49EC85
:101690000CF0000E49EC0CF0060E49EC0CF01200B8
:1016A000056E0504D8A457EF0BF059EF0BF06AEF65
:1016B0000BF004507F0F086E08380F0B066E0850B1
:1016C0000F0B076E065049EC0CF0075049EC0CF07C
:1016D00082EF0BF0020E0518D8A471EF0BF073EF38
:1016E0000BF082EF0BF00450BF0F086E08380F0BA1
:1016F000066E08500F0B076E065049EC0CF00750B1
:1017000049EC0CF01200016E01A089EF0BF08BEF99
:101710000BF08EEF0BF0CA848FEF0BF0CA9401A28E
:1017200094EF0BF096EF0BF099EF0BF0CA869AEF5F
:101730000BF0CA9601A49FEF0BF0A1EF0BF0A4EF02
:101740000BF0CA88A5EF0BF0CA9801A6AAEF0BF020
:10175000ACEF0BF0AFEF0BF0CA8AB0EF0BF0CA9A08
:10176000120017C019F0BDEF0BF016C00BF0190EE8
:101770000C6E18C00DF02EEC09F0600067F0F6FF5B
:101780000800F5500009D8A4C8EF0BF0CAEF0BF021
:10179000B5EF0BF0176A000E166E1200046E0450BF
:1017A0000F0B026E0450F00B036ECA8003380F0B50
:1017B00083EC0BF0CA82D50EE82EFED70000CA9249
:1017C000025083EC0BF0CA82D50EE82EFED7000043
:1017D000CA921200076A000E066EF8EF0BF0055071
:1017E0000624D96EDA6ADF50CEEC0BF0064A072ADF
:1017F00005500624D96EDA6ADF50D8A402EF0CF047
:1018000004EF0CF0EFEF0BF0120008BE0AEF0CF043
:101810000CEF0CF012EF0CF007C007F008C008F056
:101820001EEF0CF007C009F008C00AF0091E0A1EDE
:10183000094A0A2A09C007F00AC008F012001C0E63
:101840001E6E1AC01FF0226A000E216E296A000E59
:10185000286E1F0E166E1BC017F01E0E186EB1EC10
:101860000BF01A502124D96EDA6ADF6A120000EEFA
:1018700060F0200EEE6AE806FDE1536A526A516A92
:10188000506A4F6A000EF86E100EF76E000105EFF9
:1018900008F0036ECA90035083EC0BF0CA82540E1A
:1018A000026E1C0EE82EFED7022EFCD700D0CA9284
:1018B0001200000E49EC0CF0010E49EC0CF0120085
:0218C000120014
:04FFFC0037EF0CF0DF
:020000040030CA
:0A0000008CFDE7F79FFFFFDFFFFF15
:00000001FF
