:04000000FEEF7FF0A0
:0F1000000042542B525443205265616479000022
:10101000C00EC26E800EC36E830EC46E3A01406B6A
:10102000506B606B060E526FCB6ACC6A0F0EEA6F84
:10103000160E0E6F170EE76F130E166F090EE56F83
:101040000A0EE66F230E096F240E0A6FA00E3D01F3
:10105000DA6F800EDB6FDC6B060EDE6F820EDD6FEB
:10106000840E5D6F030E656F6DEC0AF0BFEC0BF044
:101070003D01DA89BFEC0BF0010E046E010EDEECCF
:101080000AF0010E056E0550D8A4100E066EE3ECB2
:1010900009F0290E106E960E0F6E7F0EE82EFED709
:1010A0000F2EFCD7102EFAD70000000E0B6E000E8C
:1010B00065EC0BF01E0E0B6E010E65EC0BF00E0EC8
:1010C0000B6E020E65EC0BF03D01DFB36AEF08F02A
:1010D0006CEF08F064EF08F0480ED019D8B473EF45
:1010E00008F075EF08F07EEF08F0680ED019D8A46C
:1010F0007CEF08F07EEF08F064EF08F0CCA483EFFB
:1011000008F087EF08F00F6A0F2A88EF08F00F6ADF
:101110000F460F46CC500F18FB0B0F18CC6E000E6D
:101120009EEC0BF01A6E010E9EEC0BF01B6E020E85
:101130009EEC0BF01C6E110E096E1CC00AF01BC059
:101140000BF01AC00CF0B9EC08F0BFEC0BF0010E7C
:10115000046E010EDEEC0AF0110E056E066AE3EC79
:1011600009F0110E016EABEC0AF064EF08F0FEEF2F
:101170007FF00950D96EDA6A0AC001F0026A046A87
:101180000A0E036E2CEC09F00150300FDF6E09508F
:10119000D96EDA6A010ED9260AC001F0026A046A21
:1011A0000A0E036E8CEC09F00150300FDF6E09500F
:1011B000D96EDA6A020ED9263A0EDF6E0950D96E60
:1011C000DA6A030ED9260BC001F0026A046A0A0E1D
:1011D000036E2CEC09F00150300FDF6E0950D96E10
:1011E000DA6A040ED9260BC001F0026A046A0A0EFC
:1011F000036E8CEC09F00150300FDF6E0950D96E90
:10120000DA6A050ED9263A0EDF6E0950D96EDA6A0F
:10121000060ED9260CC001F0026A046A0A0E036E9B
:101220002CEC09F00150300FDF6E0950D96EDA6AEC
:10123000070ED9260CC001F0026A046A0A0E036E7A
:101240008CEC09F00150300FDF6E0950D96EDA6A6C
:10125000080ED926DF6A1200066A04BE34EF09F0D0
:1012600032EF09F03AEF09F0036C041ED8B0042AFB
:10127000010E066E02BE41EF09F03FEF09F047EFA5
:1012800009F0016C021ED8B0022A010E061A086A83
:10129000000E076E03500410D8B451EF09F053EF5D
:1012A00009F07BEF09F0010E056E5BEF09F0D890B5
:1012B00003360436052A04AE60EF09F062EF09F048
:1012C00057EF09F0D890073608360350015C0450F8
:1012D0000258D8A06EEF09F070EF09F075EF09F031
:1012E0000350015E0450025A0780D8900432033242
:1012F000052E62EF09F00650D8B481EF09F083EFB4
:1013000009F087EF09F0076C081ED8B0082A07C05B
:1013100001F008C002F01200066A02BE94EF09F064
:1013200092EF09F09AEF09F0016C021ED8B0022A80
:10133000010E066E04BEA1EF09F09FEF09F0A5EFC4
:1013400009F0036C041ED8B0042A03500410D8B46A
:10135000ACEF09F0AEEF09F0D2EF09F0010E056E27
:10136000B6EF09F0D89003360436052A04AEBBEF79
:1013700009F0BDEF09F0B2EF09F00350015C045031
:101380000258D8A0C6EF09F0C8EF09F0CCEF09F079
:101390000350015E0450025AD89004320332052EE5
:1013A000BDEF09F00650D8B4D8EF09F0DAEF09F034
:1013B000DEEF09F0016C021ED8B0022A01C001F074
:1013C00002C002F012000A6A000E096E07EF0AF06E
:1013D00009500524076E0A500620086E60001FF0B1
:1013E000F6FF600023F0F7FF000EF86E0F0EF764B3
:1013F00003D00800F55007D06F00DBFFE9FF6F0056
:10140000DFFFEAFFEF5082EC0BF0094A0A2A09508D
:101410000524076E0A500620086E60001FF0F6FFD4
:10142000600023F0F7FF000EF86E0F0EF76403D094
:101430000800F55007D06F00DBFFE9FF6F00DFFF0A
:10144000EAFFEF500009D8A428EF0AF02AEF0AF0CB
:10145000E8EF09F01200010E3D01566FD00E586FF3
:10146000600007F055FD5D8B63A139EF0AF03BEF9B
:101470000AF034EF0AF0639162AB41EF0AF043EFF8
:101480000AF03CEF0AF063A548EF0AF04AEF0AF0D1
:1014900043EF0AF06395D10E586F010E566F5D8BC6
:1014A00063A155EF0AF057EF0AF050EF0AF063918D
:1014B0005E8F62A15EEF0AF060EF0AF059EF0AF06A
:1014C0006F0050F503F063A568EF0AF06AEF0AF0C9
:1014D00063EF0AF0639503501200000E11EC0BF05D
:1014E000020E056EA00E046E920EE82EFED7042E9C
:1014F000FCD7052EFAD700D0030EAFEC0BF0680E28
:10150000046EE40EE82EFED7042EFCD700D0030EA6
:10151000AFEC0BF0E50E046E910EE82EFED7042E14
:10152000FCD70000030EAFEC0BF0020EAFEC0BF09B
:10153000020EAFEC0BF0080EAFEC0BF0000EAFECB0
:101540000BF00C0EAFEC0BF0000EAFEC0BF0060E38
:10155000AFEC0BF01200BCEF0AF03901A7ABB3EF10
:101560000AF0B5EF0AF0ADEF0AF00150D96EDA6A71
:10157000DF503D01D26F012A0150D96EDA6ADF5087
:10158000D8A4C5EF0AF0C7EF0AF0ADEF0AF03901B1
:10159000A7ABCDEF0AF0CFEF0AF0C7EF0AF00D0EC0
:1015A0003D01D26F3901A7ABD8EF0AF0DAEF0AF0AC
:1015B000D2EF0AF00A0E3D01D26F1200056E05044B
:1015C000D8A4E5EF0AF0E7EF0AF0F8EF0AF00450CC
:1015D0007F0F086E08380F0B066E08500F0B076E52
:1015E0000650AFEC0BF00750AFEC0BF010EF0BF028
:1015F000020E0518D8A4FFEF0AF001EF0BF010EF70
:101600000BF00450BF0F086E08380F0B066E085021
:101610000F0B076E0650AFEC0BF00750AFEC0BF062
:101620001200016E01A017EF0BF019EF0BF01CEF89
:101630000BF0CA841DEF0BF0CA9401A222EF0BF04D
:1016400024EF0BF027EF0BF0CA8628EF0BF0CA96B9
:1016500001A42DEF0BF02FEF0BF032EF0BF0CA8847
:1016600033EF0BF0CA9801A638EF0BF03AEF0BF00E
:101670003DEF0BF0CA8A3EEF0BF0CA9A12000A6ED9
:101680003D015D9D020E566FD00E586F60002BF02D
:1016900055FD5D8B63A14FEF0BF051EF0BF04AEF5F
:1016A0000BF0639162AB57EF0BF059EF0BF052EF79
:1016B0000BF0600027F055FD63A561EF0BF063EFC1
:1016C0000BF05CEF0BF0639512000E6E0BC001F097
:1016D000026A046A0A0E036E8CEC09F001C00CF079
:1016E00002C00DF00BC001F0026A046A0A0E036E1C
:1016F0002CEC09F00138F00B0C10096E0E503FEC89
:101700000BF01200046E04500F0B026E0450F00B2D
:10171000036ECA8003380F0B11EC0BF0CA82D50E92
:10172000E82EFED70000CA92025011EC0BF0CA82DC
:10173000D50EE82EFED70000CA921200056E05C035
:1017400001F0026A2BEC0AF0066E06C004F00F0EE0
:10175000041606380F0B0A0DF35004241200036E12
:10176000CA90035011EC0BF0CA82540E026E1C0E8C
:10177000E82EFED7022EFCD700D0CA921200000E2F
:10178000AFEC0BF0010EAFEC0BF01200000EF86E98
:06179000000108EF08F063
:04FFFC00C6EF0BF051
:020000040030CA
:0A0000008CFDE7F79FFFFFDFFFFF15
:00000001FF
