:040000000DEF00F010
:0400080008EF08F005
:06001800FF000CEF09F0EF
:10100000004F4B5F41004F4B5F42005243300000A6
:101010006F00D8FF02F06F00DCFF03F06F00E0FF0D
:1010200004F06F00D4FF05F03901A0AF1AEF08F00B
:101030001CEF08F029EF08F03A0167A122EF08F051
:1010400024EF08F029EF08F067910B0E016E7CEC9D
:1010500008F0390197A92FEF08F031EF08F06FEF92
:1010600008F0A7A936EF08F038EF08F06FEF08F0A6
:101070006F0040F706F0410E0618D8B442EF08F0B2
:1010800044EF08F04DEF08F0610E0618D8A44BEFBE
:1010900008F04DEF08F055EF08F0010E0C6E010E50
:1010A000016E7CEC08F06DEF08F0420E0618D8B423
:1010B0005CEF08F05EEF08F067EF08F0620E0618CC
:1010C000D8A465EF08F067EF08F06DEF08F00C6A40
:1010D000CB9A060E016E7CEC08F03901A7996000EE
:1010E00017F0F5FF600013F0F8FF60000FF0F7FF56
:1010F00060000BF0F6FF11008EEF08F03901A7AB8E
:1011000084EF08F086EF08F07EEF08F0600007F04B
:10111000F6FF08006F00D7FFD2FD012A600007F03C
:10112000F6FF0800F5500009D8A499EF08F09BEFEE
:1011300008F07EEF08F03901A7ABA1EF08F0A3EFAC
:1011400008F09BEF08F00D0E3D01D26F3901A7ABFF
:10115000ACEF08F0AEEF08F0A6EF08F00A0E3D0184
:10116000D26F1200E3EC08F0096A0A6A050E086EF5
:101170000F0E076EF10EE82EFED7072EFCD7082EB5
:10118000FAD70000092A270E0964C9EF08F0CBEF4F
:1011900008F0CDEF08F0CC74096A0C50D8B4D3EF46
:1011A00008F0D5EF08F0B5EF08F00A2A130E0A642C
:1011B000DCEF08F0DEEF08F0B6EF08F0CB7AB5EF21
:1011C00008F00DEF00F0C00EC26E800EC36E030E6D
:1011D000C46E3A01406B506B606BCB6ACC6A0F0EE9
:1011E000EA6F160E0E6FA00E3D01DA6F800EDB6FF8
:1011F000DC6B060EDE6F820EDD6F800ED26E800E0F
:101200003901906F010E3A01666F676B3901A7993A
:1012100097893D01DA8912000C6A0B6A080ED56EB7
:10122000000ED66E000ED76E000EF86E100EF76E22
:061230000001B2EF08F01E
:020000040030CA
:0A0000008CFDE7F79FFFFFDFFFFF15
:00000001FF
