:040000000DEF00F010
:0400080008EF08F005
:06001800FF00FCEF08F000
:10100000004F4B5F41004F4B5F42005243300000A6
:101010006F00D8FF02F06F00DCFF03F06F00E0FF0D
:1010200004F06F00D4FF05F03901A0AF1AEF08F00B
:101030001CEF08F02BEF08F03A0167A122EF08F04F
:1010400024EF08F02BEF08F067910B0E016E6CECAB
:1010500008F03901A09F390197A931EF08F033EF6B
:1010600008F05FEF08F0A7A938EF08F03AEF08F0B2
:101070005FEF08F06F0040F706F0410E0618D8A4A5
:1010800044EF08F046EF08F04EEF08F0010E0C6E4A
:10109000010E016E6CEC08F05DEF08F0420E0618D0
:1010A000D8A455EF08F057EF08F05DEF08F00C6A90
:1010B000CB9A060E016E6CEC08F03901A79960001E
:1010C00017F0F5FF600013F0F8FF60000FF0F7FF76
:1010D00060000BF0F6FF11007EEF08F03901A7ABBE
:1010E00074EF08F076EF08F06EEF08F0600007F09C
:1010F000F6FF08006F00D7FFD2FD012A600007F05D
:10110000F6FF0800F5500009D8A489EF08F08BEF2E
:1011100008F06EEF08F03901A7AB91EF08F093EFFC
:1011200008F08BEF08F00D0E3D01D26F3901A7AB2F
:101130009CEF08F09EEF08F096EF08F00A0E3D01D4
:10114000D26F1200D3EC08F0096A0A6A050E086E25
:101150000F0E076EF10EE82EFED7072EFCD7082ED5
:10116000FAD70000092A270E0964B9EF08F0BBEF8F
:1011700008F0BDEF08F0CC74096A0C50D8B4C3EF86
:1011800008F0C5EF08F0A5EF08F00A2A130E0A646C
:10119000CCEF08F0CEEF08F0A6EF08F0CB7AA5EF81
:1011A00008F00DEF00F0C00EC26E800EC36E030E8D
:1011B000C46E3A01406B506B606BCB6ACC6A0F0E09
:1011C000EA6F160E0E6FA00E3D01DA6F800EDB6F18
:1011D000DC6B060EDE6F820EDD6F800ED26E800E2F
:1011E0003901906F010E3A01666F676B3901A7995B
:1011F00097893D01DA8912000C6A0B6A080ED56ED8
:10120000000ED66E000ED76E000EF86E100EF76E42
:061210000001A2EF08F04E
:020000040030CA
:0A0000008CFDE7F79FFFFFDFFFFF15
:00000001FF
