:040000000DEF00F010
:0400080097EF08F076
:06001800FF0012EF09F0E9
:101000000000C00EC26EC36A930EC46E3A01406BFC
:10101000506B606B060E526FCB6ACC6ACB96170E84
:10102000E76F130E166F090EE56F0A0EE66F230EBB
:10103000096F240E0A6F140EE16F1F0E156F1E0E3E
:10104000136FA00E3D01F26F800EF36FF46B060E6E
:10105000F66F820EF56F840E5D6F656B020E146F76
:10106000C00E156F186B126B136B020E1C6F640EA3
:10107000196F800ED26E800E3901906F030E3A0107
:10108000666F3901938759EC08F01BEC09F03D01BC
:10109000F289020E086EA00E076E920EE82EFED7A1
:1010A000072EFCD7082EFAD700D049EF08F00DEF35
:1010B00000F0000ED4EC08F0020E066EA00E056ED5
:1010C000920EE82EFED7052EFCD7062EFAD700D0BA
:1010D000030E02EC09F0680E056EE40EE82EFED752
:1010E000052EFCD700D0030E02EC09F0E50E056ECC
:1010F000910EE82EFED7052EFCD70000030E02EC61
:1011000009F0020E02EC09F0020E02EC09F0080EE2
:1011100002EC09F0000E02EC09F00C0E02EC09F0F2
:10112000000E02EC09F0060E02EC09F012003A0182
:1011300067A39DEF08F09FEF08F0B1EF08F0679309
:101140003D01F28B4F0EEA6F3901A3A9AAEF08F017
:10115000ACEF08F0A4EF08F04B0E3D01EA6F390147
:101160009389390193A9B7EF08F0B9EF08F0D3EFED
:1011700008F0A3A9BEEF08F0C0EF08F0D3EF08F025
:10118000CCA4C5EF08F0C9EF08F0016A012ACAEF44
:1011900008F0016A01460146CC500118FB0B01180A
:1011A000CC6E390193991100026E02A0DAEF08F0BB
:1011B000DCEF08F0DFEF08F0CA84E0EF08F0CA9433
:1011C00002A2E5EF08F0E7EF08F0EAEF08F0CA86C0
:1011D000EBEF08F0CA9602A4F0EF08F0F2EF08F087
:1011E000F5EF08F0CA88F6EF08F0CA9802A6FBEF00
:1011F00008F0FDEF08F000EF09F0CA8A01EF09F0EE
:10120000CA9A1200046ECA900450D4EC08F0CA8244
:10121000540E036E1C0EE82EFED7032EFCD700D012
:10122000CA921200080ED56E000ED66E000ED76E52
:10123000000101EF08F0000E02EC09F0010E02ECD3
:0412400009F012009F
:020000040030CA
:0A0000008CFDE7F79FFFFFDFFFFF15
:00000001FF
