:04000000FEEF7FF0A0
:10100000004E6F206D6F6465004D6F646520310088
:0F1010004D6F64652032004D6F64652033000022
:101020000B6A0D6AC00EC26EC36A030EC46E3A012B
:10103000406B506B606BCB6ACC6A6CEC09F06BEC6C
:101040000AF012EC09F00C6E0B500C18D8B42BEF10
:1010500008F02DEF08F030EF08F00D6A0CC00BF02F
:101060000C04D8A436EF08F038EF08F057EF08F07A
:101070006BEC0AF0010E046E010EAAEC09F0090EE9
:10108000056E0BEC0AF0680E096EE40EE82EFED732
:10109000092EFCD700D0CB8A680E096EE40EE82E2C
:1010A000FED7092EFCD700D0CB8821EF08F0020E26
:1010B0000C18D8A45EEF08F060EF08F0A9EF08F074
:1010C0006BEC0AF0010E046E010EAAEC09F0100E92
:1010D000056E0BEC0AF0680E096EE40EE82EFED7E2
:1010E000092EFCD700D0050E0D6079EF08F07BEFDC
:1010F00008F087EF08F0CB8A680E096EE40EE82E40
:10110000FED7092EFCD700D0CB8891EF08F0CB9A00
:10111000680E096EE40EE82EFED7092EFCD700D02B
:10112000CB980D2A090E0D6498EF08F09AEF08F09D
:101130009BEF08F00D6A090E0A6E1E0E096EE40E92
:10114000E82EFED7092EFCD70A2EFAD700D021EFC1
:1011500008F0030E0C18D8A4B0EF08F0B2EF08F0B6
:10116000F5EF08F06BEC0AF0010E046E010EAAEC2C
:1011700009F0170E056E0BEC0AF0050E0D60C3EFBB
:1011800008F0C5EF08F0D1EF08F0CB88680E096EC3
:10119000E40EE82EFED7092EFCD700D0CB9AE6EF5E
:1011A00008F00A0E0D60D7EF08F0D9EF08F0E5EF70
:1011B00008F0CB98680E096EE40EE82EFED7092ED3
:1011C000FCD700D0CB8AE6EF08F00D6A0D2A050E99
:1011D0000A6E0F0E096EF10EE82EFED7092EFCD70F
:1011E0000A2EFAD7000021EF08F06BEC0AF0010E8E
:1011F000046E010EAAEC09F0010E056E0BEC0AF06C
:10120000CB9ACB98110E0A6E3C0E096ECB0EE82ECF
:10121000FED7092EFCD70A2EFAD7000021EF08F0DE
:10122000FEEF7FF0CABC17EF09F019EF09F028EFC5
:1012300009F00E50D8A41FEF09F021EF09F028EFB4
:1012400009F0010E0E6E010E0F6E010E6BEF09F02C
:10125000CABE2DEF09F02FEF09F03EEF09F00E5056
:10126000D8A435EF09F037EF09F03EEF09F0010E91
:101270000E6E020E0F6E020E6BEF09F0CCB243EF52
:1012800009F045EF09F054EF09F00E50D8A44BEFE8
:1012900009F04DEF09F054EF09F0010E0E6E030E48
:1012A0000F6E030E6BEF09F0CAAC59EF09F05BEF5C
:1012B00009F06AEF09F0CAAE60EF09F062EF09F0D9
:1012C0006AEF09F0CCA267EF09F069EF09F06AEF65
:1012D00009F00E6A0F501200000EDDEC09F0020E4C
:1012E000056EA00E046E920EE82EFED7042EFCD7DB
:1012F000052EFAD700D0030E5BEC0AF0680E046EE0
:10130000E40EE82EFED7042EFCD700D0030E5BECD3
:101310000AF0E50E046E910EE82EFED7042EFCD7DF
:101320000000030E5BEC0AF0020E5BEC0AF0020E0A
:101330005BEC0AF0080E5BEC0AF0000E5BEC0AF0C6
:101340000C0E5BEC0AF0000E5BEC0AF0060E5BEC98
:101350000AF01200056E0504D8A4B1EF09F0B3EF4E
:1013600009F0C4EF09F004507F0F086E08380F0B26
:10137000066E08500F0B076E06505BEC0AF0075024
:101380005BEC0AF0DCEF09F0020E0518D8A4CBEFF5
:1013900009F0CDEF09F0DCEF09F00450BF0F086E43
:1013A00008380F0B066E08500F0B076E06505BECEB
:1013B0000AF007505BEC0AF01200016E01A0E3EFA7
:1013C00009F0E5EF09F0E8EF09F0CA84E9EF09F068
:1013D000CA9401A2EEEF09F0F0EF09F0F3EF09F083
:1013E000CA86F4EF09F0CA9601A4F9EF09F0FBEF01
:1013F00009F0FEEF09F0CA88FFEF09F0CA9801A6CC
:1014000004EF0AF006EF0AF009EF0AF0CA8A0AEFC1
:101410000AF0CA9A1200086A000E076E1CEF0AF062
:1014200005500724066E60001BF0F6FF0800F5501B
:101430002DEC0AF0074A082A05500724066E6000C2
:101440001BF0F6FF0800F5500009D8A42AEF0AF0B7
:101450002CEF0AF010EF0AF01200046E04500F0B8C
:10146000026E0450F00B036ECA8003380F0BDDECE4
:1014700009F0CA82D50EE82EFED70000CA920250AB
:10148000DDEC09F0CA82D50EE82EFED70000CA9224
:101490001200E40EF66E140EF76E000EF86E0900E0
:1014A0006F00D4FF0FF00E6A000EF86E100EF76E8C
:1014B000000110EF08F0036ECA900350DDEC09F054
:1014C000CA82540E026E1C0EE82EFED7022EFCD7E6
:1014D00000D0CA921200000E5BEC0AF0010E5BEC29
:0514E0000AF0120001FA
:04FFFC0049EF0AF0CF
:020000040030CA
:0A0000008CFDE7F79FFFFFDFFFFF15
:00000001FF
