:04000000FEEF7FF0A0
:101000000030313233343536373839414243444584
:1010100046005B3078253033585D3D257300286EDF
:10102000756C6C2900002250D96EDA6A6F007FFF60
:10103000F6FF100EF76E0800F550250AD8A423EF2E
:1010400008F025EF08F033EF09F02250D96EDA6A84
:10105000DF2A0001616B000E606F60C05FF06269A3
:1010600063692B6A4FEF08F05F822250D96EDA6A0B
:10107000DF2A4FEF08F0010E2B6E4FEF08F02250E1
:10108000D96EDA6A6F007FFFF6FF100EF76E080068
:10109000F550300AD8B434EF08F03BEF08F02B508D
:1010A000D8B455EF08F057EF08F03FEF08F022C032
:1010B00001F023C002F095EC0BF001C060F002C01B
:1010C00061F0000161BF69EF08F067EF08F06EEFB3
:1010D00008F05F80606D611FD8B0612B2250D96E1F
:1010E000DA6ADF502A6E6000ABF0F6FF100EF76E82
:1010F0000800F550580AD8A480EF08F082EF08F0F5
:10110000B1EF08F060008FF0D9FF600093F0DAFFD4
:10111000020EDF26DF5CD96EDA6A6F0078FF26F0F8
:101120006F0078FF27F02250D96EDA6A2A28DF6E26
:10113000A4EF08F021C015F026C016F027C017F064
:10114000BEEC0AF045EF09F06000ABF0F6FF100EC0
:10115000F76E0800F550580AD8B49AEF08F0B1EFCE
:1011600008F02B6A2250D96EDA6A6F007FFFF6FF13
:10117000100EF76E0800F550730AD8A4C2EF08F0FD
:10118000C4EF08F0CCEF08F02250D96EDA6ADF2AFB
:10119000010E2B6E11EF09F02250D96EDA6A6F0042
:1011A0007FFFF6FF100EF76E0800F5506C0AD8A40A
:1011B000DCEF08F0DEEF08F011EF09F02250D96EF5
:1011C000DA6ADF50256E010E2526600097F0F6FFE3
:1011D000100EF76E0800F5506C0AD8A4F2EF08F074
:1011E000F4EF08F011EF09F02250D96EDA6ADF50FF
:1011F000256E020E2526600097F0F6FF100EF76EA2
:101200000800F550730AD8A408EF09F00AEF09F0B6
:1012100011EF09F02250D96EDA6A030EDF26C8EF0B
:1012200008F02B50D8B417EF09F019EF09F02DEFA3
:1012300009F021C009F060008FF0D9FF600093F041
:10124000DAFF020EDF26DF5CD96EDA6A6F0078FF04
:101250000AF009EC0AF045EF09F02250D96EDA6A7B
:10126000DF2A45EF09F02250D96EDA6A6F007FFF5E
:10127000F6FF100EF76E0800F550016E026A21C0ED
:1012800003F043EC0CF02DEF09F01200010E5E6E3E
:10129000C00EC26EC36A930EC46E3A01406B506BAF
:1012A000606B060E526FCB6ACC6ACB96170EE76F57
:1012B000130E166F090EE56F0A0EE66F230E096F07
:1012C000240E0A6F140EE16F1F0E156F1E0E136FA2
:1012D000A00E3D01F26F800EF36FF46B060EF66FF9
:1012E000820EF56F840E5D6F656B020E146FC00E7B
:1012F000156F186B126B136B020E1C6F640E196F57
:101300001BEC0DF0B5EC0EF0CB8A090E436E1E0EF1
:10131000426EE40EE82EFED7422EFCD7432EFAD7BB
:1013200000D0090E436E1E0E426EE40EE82EFED76C
:10133000422EFCD7432EFAD700D0CBA8A2EF09F05B
:10134000A6EF09F0426A422AA7EF09F0426A423A40
:10135000CB504218EF0B4218CB6ECCB0B2EF09F075
:10136000B4EF09F0EDEF09F05E04D8A4BAEF09F08C
:10137000BCEF09F0EDEF09F0A40E5C6E026A000EFE
:10138000016EA40E036E39EC0BF0026A000E016EC2
:10139000ECEC0BF05D6E540E016E5DC002F0DBEC08
:1013A0000CF0440E306E120E316E336A000E326E47
:1013B000540E346E356A81EC0EF0B5EC0EF0010E71
:1013C000046E010E8CEC0DF0440E056E66EC0EF012
:1013D000440E016E59EC0DF05E6ACCA0F2EF09F0FC
:1013E000F4EF09F091EF09F05E50D8A4FAEF09F09C
:1013F000FCEF09F091EF09F0010E5E6ED00E426E27
:10140000CA0EE82EFED7422EFCD791EF09F0FEEF70
:101410007FF00AC011F0126A11501210D8A413EF15
:101420000AF015EF0AF01BEF0AF01E0E116E1150B4
:10143000D8A4100E126E146A000E136E22EF0AF07A
:10144000134A142A135011240B6E145012200C6EE0
:1014500060002FF0F6FF600033F0F7FF000EF86E2B
:101460000F0EF76403D00800F55007D06F00DBFFC4
:10147000E1FF6F00DFFFE2FFE7500009D8A443EF70
:101480000AF045EF0AF020EF0AF013C00DF014C087
:101490000EF060C00FF061C010F05FB052EF0AF0C4
:1014A00054EF0AF08FEF0AF05FEF0AF0026A200EA5
:1014B000016E09C003F043EC0CF0134A142A0F50DC
:1014C000135C1450800A0B6E1050800A0B58D8A081
:1014D0006CEF0AF06EEF0AF056EF0AF08FEF0AF0A9
:1014E000600047F0F6FF60004BF0F7FF000EF86E6B
:1014F0000F0EF76403D00800F55007D06F00DBFF34
:10150000E1FF6F00DFFFE2FFE7500B6E0B50016E53
:10151000026A09C003F043EC0CF0114A122A0D06CE
:10152000D8A00E060D2806E10E28D8A49AEF0AF0DE
:101530009CEF0AF070EF0AF05FA0A1EF0AF0A3EFB2
:101540000AF0BDEF0AF0AEEF0AF0026A200E016E5B
:1015500009C003F043EC0CF0134A142A0F50135C3B
:101560001450800A0B6E1050800A0B58D8A0BBEFA5
:101570000AF0BDEF0AF0A5EF0AF01200010E1B6E93
:1015800060C01CF061C01DF0206A1F0E1F6E0001BC
:10159000836BFAEF0AF01F06D8A0200616500F0B37
:1015A0001E6E0A0E1E60D7EF0AF0D9EF0AF0DDEFCB
:1015B0000AF0300E1E26DFEF0AF0370E1E261F50EF
:1015C000640FD96EDA6A60007BF0DFFF1B6A1C06CD
:1015D000D8A01D0616C018F017C019F0040E1A6E18
:1015E000D890193218321A2EF0EF0AF018C016F0FF
:1015F00019C017F020BE06EF0BF0205009E1020ED3
:101600001F5CD8A006EF0BF008EF0BF02DEF0BF0EE
:1016100016501710D8A40FEF0BF011EF0BF0CBEF13
:101620000AF01B50D8A417EF0BF019EF0BF0CBEF1B
:101630000AF01DBE24EF0BF01D5008E11C04D8A0D9
:1016400024EF0BF026EF0BF02DEF0BF05FB22BEF3A
:101650000BF02DEF0BF0CBEF0AF015C00EF01F5082
:10166000640F0F6E1CC010F01DC011F099EC0CF04F
:10167000120001C004F002C005F0040E066ED890FE
:1016800005320432062E3FEF0BF004501F0BA00969
:10169000076E03C004F0043A0F0E04160F0E041672
:1016A00001C005F00F0E05160538F00B0410086E8A
:1016B00003C004F00F0E04160438F00B0F09096E76
:1016C0000DEC0EF0CB86040E3D01186F020E126F6A
:1016D000136B1683148F60001FF011FD17AB73EFAF
:1016E0000BF075EF0BF06EEF0BF0600023F011FDC7
:1016F00017AB7DEF0BF07FEF0BF078EF0BF0600096
:1017000027F011FD17AB87EF0BF089EF0BF082EF9D
:101710000BF01693CB96149F680E046EE40EE82E21
:10172000FED7042EFCD700D01200076A000E066E0A
:101730000150D96EDA6A6F007FFFF6FF100EF76E68
:101740000800F5502A0AD8A4A8EF0BF0AAEF0BF076
:10175000D3EF0BF00150D96EDA6ADF2A0250D96E4E
:10176000DA6A020EDF26DF5CD96EDA6A6F0078FF74
:1017700006F06F0078FF07F0E7EF0BF00A0E0602A5
:101780006F00CCFF03F06F00D0FF04F00702F350AE
:10179000042605500324066E000E0420076E015037
:1017A000D96EDA6ADF2A0150D96EDA6A6F007FFFDC
:1017B000F6FF100EF76E0800F550D00F056E090EFB
:1017C0000564E5EF0BF0E7EF0BF0BEEF0BF006C0A2
:1017D00001F007C002F0120001C003F002C004F0E3
:1017E000040E056ED89004320332052EF2EF0BF092
:1017F00003501F0BC009066E01C003F00F0E031645
:101800000338F00B0F09076ECB863D01186B030EF2
:10181000126F136B16831681148F60001BF011FD7D
:1018200017AB15EF0CF017EF0CF010EF0CF0105198
:1018300060001FF011FD17AB20EF0CF022EF0CF051
:101840001BEF0CF06F0040F408F0116917AB2BEFA1
:101850000CF02DEF0CF026EF0CF06F0040F409F0C7
:1018600016911693CB96149F09C003F0033A0F0EFE
:1018700003160F0E031608C004F00F0E04160438EA
:10188000F00B031012000350D8B449EF0CF04BEFEB
:101890000CF053EF0CF00350D8A451EF0CF053EFC1
:1018A0000CF058EF0CF00150BCEC0EF098EF0CF07F
:1018B0000350D96EDA6A090ED926DE50DE10D8B48C
:1018C00064EF0CF066EF0CF07FEF0CF00350D96E74
:1018D000DA6A090ED9260350E16EE26A020EE126A9
:1018E000DE50E65CE650800A086EDE50800A08583A
:1018F000D8B07DEF0CF07FEF0CF098EF0CF00350B8
:10190000D96EDA6A020ED926DF50046E0350D96E02
:10191000DA6ADF500424D96EDA6A600007F0DFFF6C
:101920000350D96EDA6A020ED926DE2A000EDD22B5
:1019300012005FA09EEF0CF0A0EF0CF0A6EF0CF0F1
:101940000FC009F00EC00AF02DEC0EF011BEADEF85
:101950000CF0ABEF0CF0B0EF0CF0116A000E106E53
:10196000146A000E136EBEEF0CF0026A200E016EB8
:101970000EC003F043EC0CF0134A142A1050135C11
:101980001450800A126E1150800A1258D8A0CBEF62
:101990000CF0CDEF0CF0B5EF0CF05FB0D2EF0CF027
:1019A000D4EF0CF0DAEF0CF00FC009F00EC00AF023
:1019B0002DEC0EF01200010E056E0150D96EDA6AA0
:1019C000300EDF6E0150D96EDA6A010ED926780E1C
:1019D000DF6E02C003F0033A0F0E03160550032416
:1019E000046E600013F0F6FF100EF76E0150D96E12
:1019F000DA6A020ED92608006F00D7FFDFFF02C0A7
:101A000003F00F0E031605500324046E600013F05C
:101A1000F6FF100EF76E0150D96EDA6A030ED92662
:101A200008006F00D7FFDFFF0150D96EDA6A040E9D
:101A3000D926DF6A1200000EBFEC0DF0020E056E13
:101A4000A00E046E920EE82EFED7042EFCD7052EB3
:101A5000FAD700D0030E99EC0EF0680E046EE40E77
:101A6000E82EFED7042EFCD700D0030E99EC0EF022
:101A7000E50E046E910EE82EFED7042EFCD7000072
:101A8000030E99EC0EF0020E99EC0EF0020E99EC9A
:101A90000EF0080E99EC0EF0000E99EC0EF00C0E04
:101AA00099EC0EF0000E99EC0EF0060E99EC0EF08B
:101AB00012006AEF0DF03901A3A961EF0DF063EF99
:101AC0000DF05BEF0DF00150D96EDA6ADF503D0189
:101AD000EA6F012A0150D96EDA6ADF50D8A473EF99
:101AE0000DF075EF0DF05BEF0DF03901A3A97BEF61
:101AF0000DF07DEF0DF075EF0DF00D0E3D01EA6F6D
:101B00003901A3A986EF0DF088EF0DF080EF0DF0FD
:101B10000A0E3D01EA6F1200056E0504D8A493EF8A
:101B20000DF095EF0DF0A6EF0DF004507F0F086E4D
:101B300008380F0B066E08500F0B076E065099EC15
:101B40000EF0075099EC0EF0BEEF0DF0020E0518E6
:101B5000D8A4ADEF0DF0AFEF0DF0BEEF0DF00450D7
:101B6000BF0F086E08380F0B066E08500F0B076E7C
:101B7000065099EC0EF0075099EC0EF01200016E31
:101B800001A0C5EF0DF0C7EF0DF0CAEF0DF0CA844C
:101B9000CBEF0DF0CA9401A2D0EF0DF0D2EF0DF013
:101BA000D5EF0DF0CA86D6EF0DF0CA9601A4DBEF93
:101BB0000DF0DDEF0DF0E0EF0DF0CA88E1EF0DF074
:101BC000CA9801A6E6EF0DF0E8EF0DF0EBEF0DF08F
:101BD000CA8AECEF0DF0CA9A12002DC02FF0FAEF6E
:101BE0000DF02CC021F02F0E226E2EC023F0246A9F
:101BF00013EC08F06000BFF0F6FF100EF76E08005F
:101C0000F5500009D8A407EF0EF009EF0EF0F1EF40
:101C10000DF02D6A000E2C6E12003D01148FCB8644
:101C2000040E186F010E126F136B1683148F980E2B
:101C3000116F17AB1EEF0EF020EF0EF019EF0EF044
:101C40000F0E116F17AB27EF0EF029EF0EF022EFFA
:101C50000EF01693CB96149F12000D6A000E0C6EB8
:101C60003BEF0EF00BC001F0026A0AC003F043EC38
:101C70000CF00C4A0D2A09500C24D96EDA6ADF5098
:101C80000B6E0B50D8A447EF0EF049EF0EF032EF79
:101C90000EF01200046E04500F0B026E0450F00B95
:101CA000036ECA8003380F0BBFEC0DF0CA82D50E4D
:101CB000E82EFED70000CA920250BFEC0DF0CA8297
:101CC000D50EE82EFED70000CA921200076A000E59
:101CD000066E74EF0EF005500624D96EDA6ADF50F6
:101CE0004AEC0EF0064A072A05500624D96EDA6A35
:101CF000DF50D8A47EEF0EF080EF0EF06BEF0EF009
:101D00001200320E366E30C037F03A6A000E396E6D
:101D1000416A000E406E370E2C6E31C02DF0360E2B
:101D20002E6EEDEC0DF030503924D96EDA6ADF6A90
:101D30001200036ECA900350BFEC0DF0CA82540E1D
:101D4000026E1C0EE82EFED7022EFCD700D0CA92DF
:101D5000120000EE60F0240EEE6AE806FDE15F6A14
:101D6000000EF86E000146EF09F0000E99EC0EF03F
:0A1D7000010E99EC0EF012001200B3
:04FFFC00A9EF0EF06B
:020000040030CA
:0A0000008CFDE7F79FFFFFDFFFFF15
:00000001FF
