:04000000FEEF7FF0A0
:1010000000656C656374726F6E6971756500426925
:10101000656E76656E756520656E0000010E0B6E5F
:10102000C00EC26EC36A030EC46E3A01406B506BB1
:10103000606BCB6ACC6A93EC08F087EC09F0CCA427
:1010400024EF08F028EF08F0096A092A29EF08F0D0
:10105000096A09460946CC500918FB0B0918CC6EE1
:10106000520E0A6E2B0E096E000EE82EFED7092EC8
:10107000FCD70A2EFAD700D0CABE41EF08F043EFE2
:1010800008F046EF08F0CB8A47EF08F0CB9ACCB2D5
:101090004CEF08F04EEF08F062EF08F00B04D8A414
:1010A00054EF08F056EF08F062EF08F0CB50100A4A
:1010B000CB6E0B6A680E096EE40EE82EFED7092E81
:1010C000FCD700D0CCA267EF08F069EF08F07BEF07
:1010D00008F00B50D8A46FEF08F071EF08F07BEF29
:1010E00008F0010E0B6E680E096EE40EE82EFED7B6
:1010F000092EFCD700D087EC09F0010E046E010E1A
:10110000D1EC08F00E0E056E32EC09F0040E046E00
:10111000020ED1EC08F0010E056E32EC09F01FEF63
:1011200008F0FEEF7FF0000E04EC09F0020E056EF1
:10113000A00E046E920EE82EFED7042EFCD7052ECC
:10114000FAD700D0030E70EC09F0680E046EE40EBE
:10115000E82EFED7042EFCD700D0030E70EC09F069
:10116000E50E046E910EE82EFED7042EFCD700008B
:10117000030E70EC09F0020E70EC09F0020E70EC38
:1011800009F0080E70EC09F0000E70EC09F00C0E7E
:1011900070EC09F0000E70EC09F0060E70EC09F02E
:1011A0001200056E0504D8A4D8EF08F0DAEF08F0B5
:1011B000EBEF08F004507F0F086E08380F0B066E37
:1011C00008500F0B076E065070EC09F0075070ECDA
:1011D00009F003EF09F0020E0518D8A4F2EF08F0A9
:1011E000F4EF08F003EF09F00450BF0F086E083861
:1011F0000F0B066E08500F0B076E065070EC09F0CF
:10120000075070EC09F01200016E01A00AEF09F01E
:101210000CEF09F00FEF09F0CA8410EF09F0CA943F
:1012200001A215EF09F017EF09F01AEF09F0CA86CD
:101230001BEF09F0CA9601A420EF09F022EF09F094
:1012400025EF09F0CA8826EF09F0CA9801A62BEF0E
:1012500009F02DEF09F030EF09F0CA8A31EF09F0FB
:10126000CA9A1200086A000E076E43EF09F0055093
:101270000724066E60001BF0F6FF0800F55054ECE2
:1012800009F0074A082A05500724066E60001BF083
:10129000F6FF0800F5500009D8A451EF09F053EF0C
:1012A00009F037EF09F01200046E04500F0B026EC4
:1012B0000450F00B036ECA8003380F0B04EC09F0E6
:1012C000CA82D50EE82EFED70000CA92025004EC66
:1012D00009F0CA82D50EE82EFED70000CA9212008D
:1012E000036ECA90035004EC09F0CA82540E026ED9
:1012F0001C0EE82EFED7022EFCD700D0CA92120098
:10130000000EF86E100EF76E00010EEF08F0000EE2
:0C13100070EC09F0010E70EC09F0120006
:04FFFC0080EF09F099
:020000040030CA
:0A0000008CFDE7F79FFFFFDFFFFF15
:00000001FF
