:040000000DEF00F010
:0400080084EF08F089
:06001800FF004FEF09F0AC
:101000000000010E086EC00EC26EC36A930EC46E5D
:101010003A01406B506B606B060E526FCB6ACC6A24
:10102000CB96170EE76F130E166F090EE56F0A0EBB
:10103000E66F230E096F240E0A6F140EE16F1F0E68
:10104000156F1E0E136FA00E3D01F26F800EF36F31
:10105000F46B060EF66F820EF56F840E5D6F656B96
:10106000020E146FC00E156F186B126B136B020E0D
:101070001C6F640E196F800ED26E800E3901906F56
:10108000C00E3A01466F010E666FD3EC08F058ECC3
:1010900009F03D01F289CCB250EF08F052EF08F0B0
:1010A00067EF08F00804D8A458EF08F05AEF08F0EA
:1010B00067EF08F0086A680E076EE40EE82EFED7A8
:1010C000072EFCD700D0CC84CB503009CB6ECCA2FD
:1010D0006CEF08F06EEF08F04BEF08F00850D8A462
:1010E00074EF08F076EF08F04BEF08F0010E086E91
:1010F000680E076EE40EE82EFED7072EFCD700D050
:101100004BEF08F00DEF00F03A0147AF8AEF08F01F
:101110008CEF08F09FEF08F0CCA491EF08F095EF6A
:1011200008F0016A012A96EF08F0016A01460146BB
:10113000CC500118FB0B0118CC6E3A01479F47AD0C
:10114000A4EF08F0A6EF08F0B9EF08F0CBAAABEFD8
:1011500008F0AFEF08F0016A012AB0EF08F0016A69
:10116000013A0146CB500118DF0B0118CB6E3A0152
:10117000479D67A1BEEF08F0C0EF08F0D2EF08F07E
:10118000CBA8C5EF08F0C9EF08F0016A012ACAEF41
:1011900008F0016A013ACB500118EF0B0118CB6E31
:1011A0003A0167911100000E11EC09F0020E066E73
:1011B000A00E056E920EE82EFED7052EFCD7062E49
:1011C000FAD700D0030E3FEC09F0680E056EE40E6E
:1011D000E82EFED7052EFCD700D0030E3FEC09F019
:1011E000E50E056E910EE82EFED7052EFCD7000009
:1011F000030E3FEC09F0020E3FEC09F0020E3FEC4B
:1012000009F0080E3FEC09F0000E3FEC09F00C0E5F
:101210003FEC09F0000E3FEC09F0060E3FEC09F040
:101220001200026E02A017EF09F019EF09F01CEF8F
:1012300009F0CA841DEF09F0CA9402A222EF09F056
:1012400024EF09F027EF09F0CA8628EF09F0CA96C3
:1012500002A42DEF09F02FEF09F032EF09F0CA8850
:1012600033EF09F0CA9802A638EF09F03AEF09F017
:101270003DEF09F0CA8A3EEF09F0CA9A1200046EE7
:10128000CA90045011EC09F0CA82540E036E1C0E71
:10129000E82EFED7032EFCD700D0CA921200080E0B
:1012A000D56E000ED66E000ED76E000101EF08F06D
:0E12B000000E3FEC09F0010E3FEC09F01200B9
:020000040030CA
:0A0000008CFDE7F79FFFFFDFFFFF15
:00000001FF
