:04000000FEEF7FF0A0
:101000000000010E0A6E010E0B6EC00EC26E800E45
:10101000C36E830EC46E3A01406B506B606BCB6A3B
:10102000CC6A0F0EEA6F160E0E6FA00E3D01DA6F3E
:10103000800EDB6FDC6B060EDE6F820EDD6F5DEC0B
:1010400008F00CEC09F0010E046E010E9BEC08F0A8
:101050003D01DA89DFB32FEF08F031EF08F02AEF16
:1010600008F0410ED019D8A438EF08F03AEF08F094
:101070002AEF08F0CCA43FEF08F043EF08F0096A2C
:10108000092A44EF08F0096A09460946CC500918B4
:10109000FB0B0918CC6E4F0E3D01D26F3901A7AB87
:1010A00054EF08F056EF08F04EEF08F04B0E3D01FC
:1010B000D26F2AEF08F0FEEF7FF0000ECEEC08F0C2
:1010C000020E056EA00E046E920EE82EFED7042EC0
:1010D000FCD7052EFAD700D0030EFCEC08F0680E02
:1010E000046EE40EE82EFED7042EFCD700D0030ECB
:1010F000FCEC08F0E50E046E910EE82EFED7042EEF
:10110000FCD70000030EFCEC08F0020EFCEC08F02B
:10111000020EFCEC08F0080EFCEC08F0000EFCECF3
:1011200008F00C0EFCEC08F0000EFCEC08F0060ECB
:10113000FCEC08F01200056E0504D8A4A2EF08F03C
:10114000A4EF08F0B5EF08F004507F0F086E0838E0
:101150000F0B066E08500F0B076E0650FCEC08F0E4
:101160000750FCEC08F0CDEF08F0020E0518D8A4EB
:10117000BCEF08F0BEEF08F0CDEF08F00450BF0F51
:10118000086E08380F0B066E08500F0B076E0650DE
:10119000FCEC08F00750FCEC08F01200016E01A016
:1011A000D4EF08F0D6EF08F0D9EF08F0CA84DAEFF0
:1011B00008F0CA9401A2DFEF08F0E1EF08F0E4EFD5
:1011C00008F0CA86E5EF08F0CA9601A4EAEF08F035
:1011D000ECEF08F0EFEF08F0CA88F0EF08F0CA98DB
:1011E00001A6F5EF08F0F7EF08F0FAEF08F0CA8A69
:1011F000FBEF08F0CA9A1200036ECA900350CEECBF
:1012000008F0CA82540E026E1C0EE82EFED7022E83
:10121000FCD700D0CA921200000EFCEC08F0010EC0
:0C122000FCEC08F01200000101EF08F0E7
:04FFFC0013EF09F006
:020000040030CA
:0A0000008CFDE7F79FFFFFDFFFFF15
:00000001FF
