:04000000FEEF7FF0A0
:1010000000253032643A253032640000486A47686F
:10101000C00EC26EC36A830EC46E3A01406B506B41
:10102000606B060E526FCB6ACC6A170EE76F130E19
:10103000166F090EE56F0A0EE66F230E096F240E78
:101040000A6FA00E3D01F26F800EF36FF46B060E77
:10105000F66F820EF56F840E5D6F030E656F01EC07
:101060000CF0AEEC0DF0CB8A110E406E3C0E3F6ED4
:10107000CB0EE82EFED73F2EFCD7402EFAD700002D
:101080003D015D9D020E566FD00E586F556B5D8B06
:1010900063A14DEF08F04FEF08F048EF08F06391BF
:1010A00062AB55EF08F057EF08F050EF08F0450E2F
:1010B000556F63A55EEF08F060EF08F059EF08F098
:1010C0006395CB9A680E3F6EE40EE82EFED73F2E56
:1010D000FCD700D0026A000E016EBFEC0BF0496E27
:1010E000026A010E016EBFEC0BF0486E490E016EF4
:1010F00078EC0DF0480E016E78EC0DF04750491871
:10110000D8B485EF08F087EF08F062EF08F049C027
:1011100047F0CCA48EEF08F092EF08F03F6A3F2A28
:1011200093EF08F03F6A3F463F46CC503F18FB0B19
:101130003F18CC6E410E2D6E010E2E6E48C02FF062
:10114000306A49C031F0326A60EC0DF0AEEC0DF05F
:10115000010E046E010E72EC0CF0410E056E2BECCC
:101160000DF0410E016E3FEC0CF062EF08F0FEEF67
:101170007FF02150D96EDA6A6F007FFFF6FF100E04
:10118000F76E0800F550250AD8A4C9EF08F0CBEF98
:1011900008F058EF09F02150D96EDA6ADF2A4B6A5D
:1011A000000E4A6E4AC04EF04C684D68276AF4EF54
:1011B00008F04E822150D96EDA6ADF2AF4EF08F087
:1011C000010E276EF4EF08F02150D96EDA6A6F0035
:1011D0007FFFF6FF100EF76E0800F550300AD8B406
:1011E000D9EF08F0E0EF08F02750D8B4FAEF08F094
:1011F000FCEF08F0E4EF08F021C001F022C002F09B
:1012000079EC0AF001C04AF002C04BF04BBE0DEF82
:1012100009F00BEF09F012EF09F04E804A6C4B1EFB
:10122000D8B04B2A2150D96EDA6ADF50286E6000A0
:10123000A3F0F6FF100EF76E0800F550640AD8B45C
:1012400024EF09F026EF09F035EF09F06000A3F074
:10125000F6FF100EF76E0800F550690AD8A433EFB8
:1012600009F035EF09F052EF09F02250D96EDA6A31
:10127000020EDF26DF5CD96EDA6A6F0078FF23F09A
:101280006F0078FF24F02150D96EDA6A2828DF6ECB
:1012900020C015F023C016F024C017F06BEC09F045
:1012A0006AEF09F02150D96EDA6ADF2A6AEF09F095
:1012B0002150D96EDA6A6F007FFFF6FF100EF76ECD
:1012C0000800F550016E026A20C003F027EC0BF015
:1012D00052EF09F01200010E1A6E17BE72EF09F0FC
:1012E00075EF09F0010E76EF09F0000E1D6E4AC091
:1012F0001BF04BC01CF01D50D8B481EF09F083EFF8
:1013000009F098EF09F01B06D8A01C061D50D8A4C0
:101310008CEF09F08EEF09F093EF09F0196A2B0EAC
:10132000186E96EF09F0196A2D0E186E18C01DF090
:101330001F6A1F0E1E6E00017F6BC9EF09F01E06AB
:10134000D8A01F061E50600FD96EDA6A16C001F0D1
:1013500017C002F0046A0A0E036ED0EC0AF001C056
:1013600007F002C008F046EC0DF00750300FDF6EBA
:101370001A6A1B06D8A01C0616C001F017C002F09E
:10138000046A0A0E036E19EC0AF001C016F002C0DE
:1013900017F01FBED4EF09F01F5008E11E04D8A0BB
:1013A000D4EF09F0D6EF09F0FBEF09F01650171053
:1013B000D8A4DDEF09F0DFEF09F09FEF09F01A5034
:1013C000D8A4E5EF09F0E7EF09F09FEF09F01CBEA4
:1013D000F2EF09F01C5008E11B04D8A0F2EF09F06D
:1013E000F4EF09F0FBEF09F04EB2F9EF09F0FBEF73
:1013F00009F09FEF09F01D50D8B401EF0AF003EF98
:101400000AF00DEF0AF01E06D8A01F061E50600F4E
:10141000D96EDA6A600077F0DFFF15C00EF01E505B
:10142000600F0F6E1BC010F01CC011F07DEC0BF0B4
:101430001200066A04BE21EF0AF01FEF0AF027EF40
:101440000AF0036C041ED8B0042A010E066E02BE18
:101450002EEF0AF02CEF0AF034EF0AF0016C021EB6
:10146000D8B0022A010E061A086A000E076E035051
:101470000410D8B43EEF0AF040EF0AF068EF0AF02B
:10148000010E056E48EF0AF0D89003360436052A9F
:1014900004AE4DEF0AF04FEF0AF044EF0AF0D89097
:1014A000073608360350015C04500258D8A05BEFA1
:1014B0000AF05DEF0AF062EF0AF00350015E04509B
:1014C000025A0780D89004320332052E4FEF0AF0FB
:1014D0000650D8B46EEF0AF070EF0AF074EF0AF01D
:1014E000076C081ED8B0082A07C001F008C002F037
:1014F0001200076A000E066E0150D96EDA6A6F009C
:101500007FFFF6FF100EF76E0800F5502A0AD8A4E8
:101510008CEF0AF08EEF0AF0B7EF0AF00150D96EA7
:10152000DA6ADF2A0250D96EDA6A020EDF26DF5C41
:10153000D96EDA6A6F0078FF06F06F0078FF07F067
:10154000CBEF0AF00A0E06026F00CCFF03F06F002B
:10155000D0FF04F00702F350042605500324066E62
:10156000000E0420076E0150D96EDA6ADF2A01509E
:10157000D96EDA6A6F007FFFF6FF100EF76E080073
:10158000F550D00F056E090E0564C9EF0AF0CBEFD8
:101590000AF0A2EF0AF006C001F007C002F0120044
:1015A000066A02BED8EF0AF0D6EF0AF0DEEF0AF0C4
:1015B000016C021ED8B0022A010E066E04BEE5EFD1
:1015C0000AF0E3EF0AF0E9EF0AF0036C041ED8B06A
:1015D000042A03500410D8B4F0EF0AF0F2EF0AF036
:1015E00016EF0BF0010E056EFAEF0AF0D8900336F5
:1015F0000436052A04AEFFEF0AF001EF0BF0F6EF18
:101600000AF00350015C04500258D8A00AEF0BF016
:101610000CEF0BF010EF0BF00350015E0450025A78
:10162000D89004320332052E01EF0BF00650D8B4E7
:101630001CEF0BF01EEF0BF022EF0BF0016C021E03
:10164000D8B0022A01C001F002C002F0120003501B
:10165000D8B42DEF0BF02FEF0BF037EF0BF003505A
:10166000D8A435EF0BF037EF0BF03CEF0BF0015047
:10167000B5EC0DF07CEF0BF00350D96EDA6A090E71
:10168000D926DE50DE10D8B448EF0BF04AEF0BF04D
:1016900063EF0BF00350D96EDA6A090ED9260350B6
:1016A000E16EE26A020EE126DE50E65CE650800A58
:1016B000086EDE50800A0858D8B061EF0BF063EF77
:1016C0000BF07CEF0BF00350D96EDA6A020ED926CC
:1016D000DF50046E0350D96EDA6ADF500424D96EED
:1016E000DA6A600007F0DFFF0350D96EDA6A020E93
:1016F000D926DE2A000EDD2212004EA082EF0BF06A
:1017000084EF0BF08AEF0BF00FC009F00EC00AF067
:10171000F2EC0CF011BE91EF0BF08FEF0BF094EFA9
:101720000BF0116A000E106E146A000E136EA2EF19
:101730000BF0026A200E016E0EC003F027EC0BF0D6
:10174000134A142A1050135C1450800A126E115060
:10175000800A1258D8A0AFEF0BF0B1EF0BF099EF61
:101760000BF04EB0B6EF0BF0B8EF0BF0BEEF0BF096
:101770000FC009F00EC00AF0F2EC0CF01200010EDE
:101780003D01566FD00E586F600007F055FD5D8B20
:1017900063A1CDEF0BF0CFEF0BF0C8EF0BF063912F
:1017A00062ABD5EF0BF0D7EF0BF0D0EF0BF063A5EA
:1017B000DCEF0BF0DEEF0BF0D7EF0BF06395D10E03
:1017C000586F010E566F5D8B63A1E9EF0BF0EBEFE5
:1017D0000BF0E4EF0BF063915E8F62A1F2EF0BF080
:1017E000F4EF0BF0EDEF0BF06F0050F503F063A595
:1017F000FCEF0BF0FEEF0BF0F7EF0BF063950350EF
:101800001200000EA5EC0CF0020E056EA00E046E88
:10181000920EE82EFED7042EFCD7052EFAD700D064
:10182000030E9EEC0DF0680E046EE40EE82EFED75B
:10183000042EFCD700D0030E9EEC0DF0E50E046ED6
:10184000910EE82EFED7042EFCD70000030E9EEC6E
:101850000DF0020E9EEC0DF0020E9EEC0DF0080E47
:101860009EEC0DF0000E9EEC0DF00C0E9EEC0DF0BB
:10187000000E9EEC0DF0060E9EEC0DF0120050EFE7
:101880000CF03901A3A947EF0CF049EF0CF041EF40
:101890000CF00150D96EDA6ADF503D01EA6F012A7F
:1018A0000150D96EDA6ADF50D8A459EF0CF05BEF23
:1018B0000CF041EF0CF03901A3A961EF0CF063EFDC
:1018C0000CF05BEF0CF00D0E3D01EA6F3901A3A99E
:1018D0006CEF0CF06EEF0CF066EF0CF00A0E3D01B1
:1018E000EA6F1200056E0504D8A479EF0CF07BEFC7
:1018F0000CF08CEF0CF004507F0F086E08380F0BC3
:10190000066E08500F0B076E06509EEC0DF0075048
:101910009EEC0DF0A4EF0CF0020E0518D8A493EF86
:101920000CF095EF0CF0A4EF0CF00450BF0F086E14
:1019300008380F0B066E08500F0B076E06509EEC12
:101940000DF007509EEC0DF01200016E01A0ABEF00
:101950000CF0ADEF0CF0B0EF0CF0CA84B1EF0CF06E
:10196000CA9401A2B6EF0CF0B8EF0CF0BBEF0CF08C
:10197000CA86BCEF0CF0CA9601A4C1EF0CF0C3EF0D
:101980000CF0C6EF0CF0CA88C7EF0CF0CA9801A69D
:10199000CCEF0CF0CEEF0CF0D1EF0CF0CA8AD2EF06
:1019A0000CF0CA9A12002AC02CF0DFEF0CF029C00C
:1019B00020F02C0E216E2BC022F0B9EC08F0600054
:1019C000B3F0F6FF100EF76E0800F5500009D8A42A
:1019D000ECEF0CF0EEEF0CF0D7EF0CF02A6A000EF3
:1019E000296E12000D6A000E0C6E00EF0DF00BC098
:1019F00001F0026A0AC003F027EC0BF00C4A0D2A32
:101A000009500C24D96EDA6ADF500B6E0B50D8A443
:101A10000CEF0DF00EEF0DF0F7EF0CF01200046E6E
:101A200004500F0B026E0450F00B036ECA80033893
:101A30000F0BA5EC0CF0CA82D50EE82EFED70000E5
:101A4000CA920250A5EC0CF0CA82D50EE82EFED741
:101A50000000CA921200076A000E066E39EF0DF000
:101A600005500624D96EDA6ADF500FEC0DF0064AF5
:101A7000072A05500624D96EDA6ADF50D8A443EF4E
:101A80000DF045EF0DF030EF0DF0120008BE4BEFFA
:101A90000DF04DEF0DF053EF0DF007C007F008C04B
:101AA00008F05FEF0DF007C009F008C00AF0091E4A
:101AB0000A1E094A0A2A09C007F00AC008F01200E3
:101AC0002F0E336E2DC034F0376A000E366E3E6A2C
:101AD000000E3D6E340E296E2EC02AF0330E2B6E92
:101AE000D3EC0CF02D503624D96EDA6ADF6A12007E
:101AF0000150D96EDA6A0150E16EE26AE750026E77
:101B00000F0E02160150E16EE26AE750036E0338D1
:101B10000F0B0A0DF3500224DF6E120000EE60F08E
:101B2000200EEE6AE806FDE14E6A4D6A4C6A4B6A89
:101B30004A6A000EF86E000106EF08F0036ECA90C4
:101B40000350A5EC0CF0CA82540E026E1C0EE82E57
:101B5000FED7022EFCD700D0CA921200000E9EECD7
:0C1B60000DF0010E9EEC0DF012001200C2
:04FFFC008EEF0DF087
:020000040030CA
:0A0000008CFDE7F79FFFFFDFFFFF15
:00000001FF
